{
    "_format": "hh-sol-artifact-1",
    "contractName": "AlphaSynoPerps",
    "sourceName": "contracts/AlphaSynoPerps.sol",
    "abi": [
        {
            "inputs": [
                {
                    "internalType": "address",
                    "name": "_account",
                    "type": "address"
                },
                {
                    "internalType": "address",
                    "name": "_asset",
                    "type": "address"
                },
                {
                    "internalType": "uint256",
                    "name": "_amount",
                    "type": "uint256"
                },
                {
                    "internalType": "uint256",
                    "name": "_index",
                    "type": "uint256"
                }
            ],
            "name": "addCollateral",
            "outputs": [],
            "stateMutability": "nonpayable",
            "type": "function"
        },
        {
            "inputs": [
                {
                    "internalType": "address",
                    "name": "_account",
                    "type": "address"
                },
                {
                    "internalType": "address",
                    "name": "_asset",
                    "type": "address"
                }
            ],
            "name": "getAllOptions",
            "outputs": [
                {
                    "components": [
                        {
                            "internalType": "address",
                            "name": "underlyingAsset",
                            "type": "address"
                        },
                        {
                            "internalType": "uint256",
                            "name": "strikePrice",
                            "type": "uint256"
                        },
                        {
                            "internalType": "uint256",
                            "name": "expiryTimestamp",
                            "type": "uint256"
                        },
                        {
                            "internalType": "bool",
                            "name": "isPut",
                            "type": "bool"
                        },
                        {
                            "internalType": "uint256",
                            "name": "amount",
                            "type": "uint256"
                        }
                    ],
                    "internalType": "struct OptionPostion[]",
                    "name": "",
                    "type": "tuple[]"
                },
                {
                    "components": [
                        {
                            "internalType": "address",
                            "name": "underlyingAsset",
                            "type": "address"
                        },
                        {
                            "internalType": "uint256",
                            "name": "strikePrice",
                            "type": "uint256"
                        },
                        {
                            "internalType": "uint256",
                            "name": "expiryTimestamp",
                            "type": "uint256"
                        },
                        {
                            "internalType": "bool",
                            "name": "isPut",
                            "type": "bool"
                        },
                        {
                            "internalType": "uint256",
                            "name": "amount",
                            "type": "uint256"
                        }
                    ],
                    "internalType": "struct OptionPostion[]",
                    "name": "",
                    "type": "tuple[]"
                }
            ],
            "stateMutability": "view",
            "type": "function"
        },
        {
            "inputs": [
                {
                    "internalType": "address",
                    "name": "_account",
                    "type": "address"
                }
            ],
            "name": "getColl",
            "outputs": [
                {
                    "internalType": "address[]",
                    "name": "",
                    "type": "address[]"
                },
                {
                    "internalType": "int256[]",
                    "name": "",
                    "type": "int256[]"
                }
            ],
            "stateMutability": "view",
            "type": "function"
        },
        {
            "inputs": [
                {
                    "internalType": "address",
                    "name": "_account",
                    "type": "address"
                }
            ],
            "name": "getDerivAssets",
            "outputs": [
                {
                    "internalType": "address[]",
                    "name": "",
                    "type": "address[]"
                }
            ],
            "stateMutability": "view",
            "type": "function"
        },
        {
            "inputs": [
                {
                    "internalType": "address",
                    "name": "_account",
                    "type": "address"
                },
                {
                    "internalType": "address",
                    "name": "_asset",
                    "type": "address"
                }
            ],
            "name": "getDerivVault",
            "outputs": [
                {
                    "components": [
                        {
                            "internalType": "address",
                            "name": "underlyingAsset",
                            "type": "address"
                        },
                        {
                            "components": [
                                {
                                    "internalType": "address",
                                    "name": "underlyingAsset",
                                    "type": "address"
                                },
                                {
                                    "internalType": "uint256",
                                    "name": "strikePrice",
                                    "type": "uint256"
                                },
                                {
                                    "internalType": "uint256",
                                    "name": "expiryTimestamp",
                                    "type": "uint256"
                                },
                                {
                                    "internalType": "bool",
                                    "name": "isPut",
                                    "type": "bool"
                                },
                                {
                                    "internalType": "uint256",
                                    "name": "amount",
                                    "type": "uint256"
                                }
                            ],
                            "internalType": "struct OptionPostion[]",
                            "name": "longOptions",
                            "type": "tuple[]"
                        },
                        {
                            "components": [
                                {
                                    "internalType": "address",
                                    "name": "underlyingAsset",
                                    "type": "address"
                                },
                                {
                                    "internalType": "uint256",
                                    "name": "strikePrice",
                                    "type": "uint256"
                                },
                                {
                                    "internalType": "uint256",
                                    "name": "expiryTimestamp",
                                    "type": "uint256"
                                },
                                {
                                    "internalType": "bool",
                                    "name": "isPut",
                                    "type": "bool"
                                },
                                {
                                    "internalType": "uint256",
                                    "name": "amount",
                                    "type": "uint256"
                                }
                            ],
                            "internalType": "struct OptionPostion[]",
                            "name": "shortOptions",
                            "type": "tuple[]"
                        },
                        {
                            "components": [
                                {
                                    "internalType": "uint256",
                                    "name": "amount",
                                    "type": "uint256"
                                },
                                {
                                    "internalType": "uint256",
                                    "name": "openPrice",
                                    "type": "uint256"
                                },
                                {
                                    "internalType": "uint256",
                                    "name": "lastUpdatedAt",
                                    "type": "uint256"
                                },
                                {
                                    "internalType": "bool",
                                    "name": "isLong",
                                    "type": "bool"
                                }
                            ],
                            "internalType": "struct PerpFuturesPostion",
                            "name": "perpPos",
                            "type": "tuple"
                        },
                        {
                            "components": [
                                {
                                    "internalType": "address",
                                    "name": "user",
                                    "type": "address"
                                },
                                {
                                    "components": [
                                        {
                                            "internalType": "uint256",
                                            "name": "amount",
                                            "type": "uint256"
                                        },
                                        {
                                            "internalType": "uint256",
                                            "name": "openPrice",
                                            "type": "uint256"
                                        },
                                        {
                                            "internalType": "uint256",
                                            "name": "lastUpdatedAt",
                                            "type": "uint256"
                                        },
                                        {
                                            "internalType": "bool",
                                            "name": "isLong",
                                            "type": "bool"
                                        }
                                    ],
                                    "internalType": "struct PerpFuturesPostion",
                                    "name": "pos",
                                    "type": "tuple"
                                },
                                {
                                    "internalType": "uint256",
                                    "name": "orderExpiry",
                                    "type": "uint256"
                                },
                                {
                                    "internalType": "uint256",
                                    "name": "openedAt",
                                    "type": "uint256"
                                }
                            ],
                            "internalType": "struct OpenPerpOrder[]",
                            "name": "openPerpOrders",
                            "type": "tuple[]"
                        },
                        {
                            "components": [
                                {
                                    "internalType": "address",
                                    "name": "user",
                                    "type": "address"
                                },
                                {
                                    "components": [
                                        {
                                            "internalType": "address",
                                            "name": "underlyingAsset",
                                            "type": "address"
                                        },
                                        {
                                            "internalType": "uint256",
                                            "name": "strikePrice",
                                            "type": "uint256"
                                        },
                                        {
                                            "internalType": "uint256",
                                            "name": "expiryTimestamp",
                                            "type": "uint256"
                                        },
                                        {
                                            "internalType": "bool",
                                            "name": "isPut",
                                            "type": "bool"
                                        },
                                        {
                                            "internalType": "uint256",
                                            "name": "amount",
                                            "type": "uint256"
                                        }
                                    ],
                                    "internalType": "struct OptionPostion",
                                    "name": "pos",
                                    "type": "tuple"
                                },
                                {
                                    "internalType": "uint256",
                                    "name": "orderExpiry",
                                    "type": "uint256"
                                },
                                {
                                    "internalType": "bool",
                                    "name": "isLong",
                                    "type": "bool"
                                },
                                {
                                    "internalType": "uint256",
                                    "name": "openedAt",
                                    "type": "uint256"
                                }
                            ],
                            "internalType": "struct OpenOptionsOrder[]",
                            "name": "openOptionOrders",
                            "type": "tuple[]"
                        }
                    ],
                    "internalType": "struct DerivativesVault",
                    "name": "",
                    "type": "tuple"
                }
            ],
            "stateMutability": "view",
            "type": "function"
        },
        {
            "inputs": [
                {
                    "internalType": "address",
                    "name": "_account",
                    "type": "address"
                }
            ],
            "name": "getDerivVaultsCount",
            "outputs": [
                {
                    "internalType": "uint256",
                    "name": "",
                    "type": "uint256"
                }
            ],
            "stateMutability": "view",
            "type": "function"
        },
        {
            "inputs": [
                {
                    "internalType": "address",
                    "name": "_account",
                    "type": "address"
                },
                {
                    "internalType": "address",
                    "name": "_asset",
                    "type": "address"
                }
            ],
            "name": "getLongOptions",
            "outputs": [
                {
                    "components": [
                        {
                            "internalType": "address",
                            "name": "underlyingAsset",
                            "type": "address"
                        },
                        {
                            "internalType": "uint256",
                            "name": "strikePrice",
                            "type": "uint256"
                        },
                        {
                            "internalType": "uint256",
                            "name": "expiryTimestamp",
                            "type": "uint256"
                        },
                        {
                            "internalType": "bool",
                            "name": "isPut",
                            "type": "bool"
                        },
                        {
                            "internalType": "uint256",
                            "name": "amount",
                            "type": "uint256"
                        }
                    ],
                    "internalType": "struct OptionPostion[]",
                    "name": "",
                    "type": "tuple[]"
                }
            ],
            "stateMutability": "view",
            "type": "function"
        },
        {
            "inputs": [
                {
                    "internalType": "address",
                    "name": "_account",
                    "type": "address"
                }
            ],
            "name": "getMarginVault",
            "outputs": [
                {
                    "internalType": "address[]",
                    "name": "",
                    "type": "address[]"
                },
                {
                    "internalType": "int256[]",
                    "name": "",
                    "type": "int256[]"
                },
                {
                    "components": [
                        {
                            "internalType": "address",
                            "name": "underlyingAsset",
                            "type": "address"
                        },
                        {
                            "components": [
                                {
                                    "internalType": "address",
                                    "name": "underlyingAsset",
                                    "type": "address"
                                },
                                {
                                    "internalType": "uint256",
                                    "name": "strikePrice",
                                    "type": "uint256"
                                },
                                {
                                    "internalType": "uint256",
                                    "name": "expiryTimestamp",
                                    "type": "uint256"
                                },
                                {
                                    "internalType": "bool",
                                    "name": "isPut",
                                    "type": "bool"
                                },
                                {
                                    "internalType": "uint256",
                                    "name": "amount",
                                    "type": "uint256"
                                }
                            ],
                            "internalType": "struct OptionPostion[]",
                            "name": "longOptions",
                            "type": "tuple[]"
                        },
                        {
                            "components": [
                                {
                                    "internalType": "address",
                                    "name": "underlyingAsset",
                                    "type": "address"
                                },
                                {
                                    "internalType": "uint256",
                                    "name": "strikePrice",
                                    "type": "uint256"
                                },
                                {
                                    "internalType": "uint256",
                                    "name": "expiryTimestamp",
                                    "type": "uint256"
                                },
                                {
                                    "internalType": "bool",
                                    "name": "isPut",
                                    "type": "bool"
                                },
                                {
                                    "internalType": "uint256",
                                    "name": "amount",
                                    "type": "uint256"
                                }
                            ],
                            "internalType": "struct OptionPostion[]",
                            "name": "shortOptions",
                            "type": "tuple[]"
                        },
                        {
                            "components": [
                                {
                                    "internalType": "uint256",
                                    "name": "amount",
                                    "type": "uint256"
                                },
                                {
                                    "internalType": "uint256",
                                    "name": "openPrice",
                                    "type": "uint256"
                                },
                                {
                                    "internalType": "uint256",
                                    "name": "lastUpdatedAt",
                                    "type": "uint256"
                                },
                                {
                                    "internalType": "bool",
                                    "name": "isLong",
                                    "type": "bool"
                                }
                            ],
                            "internalType": "struct PerpFuturesPostion",
                            "name": "perpPos",
                            "type": "tuple"
                        },
                        {
                            "components": [
                                {
                                    "internalType": "address",
                                    "name": "user",
                                    "type": "address"
                                },
                                {
                                    "components": [
                                        {
                                            "internalType": "uint256",
                                            "name": "amount",
                                            "type": "uint256"
                                        },
                                        {
                                            "internalType": "uint256",
                                            "name": "openPrice",
                                            "type": "uint256"
                                        },
                                        {
                                            "internalType": "uint256",
                                            "name": "lastUpdatedAt",
                                            "type": "uint256"
                                        },
                                        {
                                            "internalType": "bool",
                                            "name": "isLong",
                                            "type": "bool"
                                        }
                                    ],
                                    "internalType": "struct PerpFuturesPostion",
                                    "name": "pos",
                                    "type": "tuple"
                                },
                                {
                                    "internalType": "uint256",
                                    "name": "orderExpiry",
                                    "type": "uint256"
                                },
                                {
                                    "internalType": "uint256",
                                    "name": "openedAt",
                                    "type": "uint256"
                                }
                            ],
                            "internalType": "struct OpenPerpOrder[]",
                            "name": "openPerpOrders",
                            "type": "tuple[]"
                        },
                        {
                            "components": [
                                {
                                    "internalType": "address",
                                    "name": "user",
                                    "type": "address"
                                },
                                {
                                    "components": [
                                        {
                                            "internalType": "address",
                                            "name": "underlyingAsset",
                                            "type": "address"
                                        },
                                        {
                                            "internalType": "uint256",
                                            "name": "strikePrice",
                                            "type": "uint256"
                                        },
                                        {
                                            "internalType": "uint256",
                                            "name": "expiryTimestamp",
                                            "type": "uint256"
                                        },
                                        {
                                            "internalType": "bool",
                                            "name": "isPut",
                                            "type": "bool"
                                        },
                                        {
                                            "internalType": "uint256",
                                            "name": "amount",
                                            "type": "uint256"
                                        }
                                    ],
                                    "internalType": "struct OptionPostion",
                                    "name": "pos",
                                    "type": "tuple"
                                },
                                {
                                    "internalType": "uint256",
                                    "name": "orderExpiry",
                                    "type": "uint256"
                                },
                                {
                                    "internalType": "bool",
                                    "name": "isLong",
                                    "type": "bool"
                                },
                                {
                                    "internalType": "uint256",
                                    "name": "openedAt",
                                    "type": "uint256"
                                }
                            ],
                            "internalType": "struct OpenOptionsOrder[]",
                            "name": "openOptionOrders",
                            "type": "tuple[]"
                        }
                    ],
                    "internalType": "struct DerivativesVault[]",
                    "name": "",
                    "type": "tuple[]"
                }
            ],
            "stateMutability": "view",
            "type": "function"
        },
        {
            "inputs": [
                {
                    "internalType": "address",
                    "name": "_account",
                    "type": "address"
                },
                {
                    "internalType": "address",
                    "name": "_asset",
                    "type": "address"
                }
            ],
            "name": "getPerpPos",
            "outputs": [
                {
                    "components": [
                        {
                            "internalType": "uint256",
                            "name": "amount",
                            "type": "uint256"
                        },
                        {
                            "internalType": "uint256",
                            "name": "openPrice",
                            "type": "uint256"
                        },
                        {
                            "internalType": "uint256",
                            "name": "lastUpdatedAt",
                            "type": "uint256"
                        },
                        {
                            "internalType": "bool",
                            "name": "isLong",
                            "type": "bool"
                        }
                    ],
                    "internalType": "struct PerpFuturesPostion",
                    "name": "",
                    "type": "tuple"
                }
            ],
            "stateMutability": "view",
            "type": "function"
        },
        {
            "inputs": [
                {
                    "internalType": "address",
                    "name": "_account",
                    "type": "address"
                },
                {
                    "internalType": "address",
                    "name": "_asset",
                    "type": "address"
                }
            ],
            "name": "getShortOptions",
            "outputs": [
                {
                    "components": [
                        {
                            "internalType": "address",
                            "name": "underlyingAsset",
                            "type": "address"
                        },
                        {
                            "internalType": "uint256",
                            "name": "strikePrice",
                            "type": "uint256"
                        },
                        {
                            "internalType": "uint256",
                            "name": "expiryTimestamp",
                            "type": "uint256"
                        },
                        {
                            "internalType": "bool",
                            "name": "isPut",
                            "type": "bool"
                        },
                        {
                            "internalType": "uint256",
                            "name": "amount",
                            "type": "uint256"
                        }
                    ],
                    "internalType": "struct OptionPostion[]",
                    "name": "",
                    "type": "tuple[]"
                }
            ],
            "stateMutability": "view",
            "type": "function"
        },
        {
            "inputs": [
                {
                    "internalType": "address",
                    "name": "_account",
                    "type": "address"
                },
                {
                    "internalType": "address",
                    "name": "_underlyingAsset",
                    "type": "address"
                },
                {
                    "internalType": "uint256",
                    "name": "_strikePrice",
                    "type": "uint256"
                },
                {
                    "internalType": "uint256",
                    "name": "_expiryTimestamp",
                    "type": "uint256"
                },
                {
                    "internalType": "bool",
                    "name": "_isPut",
                    "type": "bool"
                },
                {
                    "internalType": "uint256",
                    "name": "_amount",
                    "type": "uint256"
                },
                {
                    "internalType": "uint256",
                    "name": "_assetIdx",
                    "type": "uint256"
                },
                {
                    "internalType": "uint256",
                    "name": "_index",
                    "type": "uint256"
                }
            ],
            "name": "longOption",
            "outputs": [],
            "stateMutability": "nonpayable",
            "type": "function"
        },
        {
            "inputs": [
                {
                    "internalType": "address",
                    "name": "_account",
                    "type": "address"
                },
                {
                    "internalType": "address",
                    "name": "_asset",
                    "type": "address"
                },
                {
                    "internalType": "uint256",
                    "name": "_amount",
                    "type": "uint256"
                },
                {
                    "internalType": "uint256",
                    "name": "_openPrice",
                    "type": "uint256"
                },
                {
                    "internalType": "uint256",
                    "name": "_assetIdx",
                    "type": "uint256"
                }
            ],
            "name": "longPerp",
            "outputs": [],
            "stateMutability": "nonpayable",
            "type": "function"
        },
        {
            "inputs": [
                {
                    "internalType": "address",
                    "name": "_account",
                    "type": "address"
                },
                {
                    "internalType": "address",
                    "name": "_underlyingAsset",
                    "type": "address"
                },
                {
                    "internalType": "uint256",
                    "name": "_strikePrice",
                    "type": "uint256"
                },
                {
                    "internalType": "uint256",
                    "name": "_expiryTimestamp",
                    "type": "uint256"
                },
                {
                    "internalType": "bool",
                    "name": "_isPut",
                    "type": "bool"
                },
                {
                    "internalType": "uint256",
                    "name": "_amount",
                    "type": "uint256"
                },
                {
                    "internalType": "uint256",
                    "name": "_assetIdx",
                    "type": "uint256"
                },
                {
                    "internalType": "uint256",
                    "name": "_index",
                    "type": "uint256"
                }
            ],
            "name": "shortOption",
            "outputs": [],
            "stateMutability": "nonpayable",
            "type": "function"
        },
        {
            "inputs": [
                {
                    "internalType": "address",
                    "name": "_account",
                    "type": "address"
                },
                {
                    "internalType": "address",
                    "name": "_asset",
                    "type": "address"
                },
                {
                    "internalType": "uint256",
                    "name": "_amount",
                    "type": "uint256"
                },
                {
                    "internalType": "uint256",
                    "name": "_openPrice",
                    "type": "uint256"
                },
                {
                    "internalType": "uint256",
                    "name": "_assetIdx",
                    "type": "uint256"
                }
            ],
            "name": "shortPerp",
            "outputs": [],
            "stateMutability": "nonpayable",
            "type": "function"
        },
        {
            "inputs": [
                {
                    "internalType": "address",
                    "name": "_account",
                    "type": "address"
                },
                {
                    "internalType": "address",
                    "name": "_asset",
                    "type": "address"
                },
                {
                    "internalType": "uint256",
                    "name": "_amount",
                    "type": "uint256"
                },
                {
                    "internalType": "uint256",
                    "name": "_index",
                    "type": "uint256"
                }
            ],
            "name": "withdrawCollateral",
            "outputs": [],
            "stateMutability": "nonpayable",
            "type": "function"
        }
    ],
    "bytecode": "0x608060405234801561001057600080fd5b50612fe0806100206000396000f3fe608060405234801561001057600080fd5b50600436106100f55760003560e01c80634c76747c11610097578063ad9933c311610066578063ad9933c3146102aa578063dd94ee75146102da578063e5b058721461030a578063f5e6546c1461033a576100f5565b80634c76747c146101fb5780635af83f3b146102175780636b3dde7a14610248578063839887fa1461027a576100f5565b80631c02c7f3116100d35780631c02c7f31461017757806321b5438b146101935780632acf44f2146101af57806338828524146101df576100f5565b80630403756a146100fa578063106234f61461012a5780631937b03c14610146575b600080fd5b610114600480360381019061010f9190612141565b610356565b604051610121919061220a565b60405180910390f35b610144600480360381019061013f9190612251565b6104bf565b005b610160600480360381019061015b91906122b8565b610571565b60405161016e92919061246b565b60405180910390f35b610191600480360381019061018c91906124a2565b6106a2565b005b6101ad60048036038101906101a89190612549565b610757565b005b6101c960048036038101906101c49190612141565b610815565b6040516101d69190612716565b60405180910390f35b6101f960048036038101906101f49190612549565b610a19565b005b610215600480360381019061021091906124a2565b610ad7565b005b610231600480360381019061022c9190612141565b610b8c565b60405161023f929190612738565b60405180910390f35b610262600480360381019061025d91906122b8565b610ec3565b60405161027193929190612bb3565b60405180910390f35b610294600480360381019061028f9190612141565b611646565b6040516102a19190612716565b60405180910390f35b6102c460048036038101906102bf9190612141565b61184a565b6040516102d19190612c9f565b60405180910390f35b6102f460048036038101906102ef91906122b8565b611e93565b6040516103019190612cd0565b60405180910390f35b610324600480360381019061031f91906122b8565b611ee1565b6040516103319190612ceb565b60405180910390f35b610354600480360381019061034f9190612251565b611fb0565b005b61035e612062565b60008060008573ffffffffffffffffffffffffffffffffffffffff1673ffffffffffffffffffffffffffffffffffffffff16815260200190815260200160002090508060040160008473ffffffffffffffffffffffffffffffffffffffff1673ffffffffffffffffffffffffffffffffffffffff16815260200190815260200160002060009054906101000a900460ff1661042e576040517f08c379a000000000000000000000000000000000000000000000000000000000815260040161042590612d6a565b60405180910390fd5b8060030160008473ffffffffffffffffffffffffffffffffffffffff1673ffffffffffffffffffffffffffffffffffffffff1681526020019081526020016000206003016040518060800160405290816000820154815260200160018201548152602001600282015481526020016003820160009054906101000a900460ff16151515158152505091505092915050565b6000808573ffffffffffffffffffffffffffffffffffffffff1673ffffffffffffffffffffffffffffffffffffffff16815260200190815260200160002073__$f483377b159a5ea0e3632e216689e4fd4e$__63cf68ef9190918585856040518563ffffffff1660e01b815260040161053b9493929190612daf565b60006040518083038186803b15801561055357600080fd5b505af4158015610567573d6000803e3d6000fd5b5050505050505050565b60608060008060008573ffffffffffffffffffffffffffffffffffffffff1673ffffffffffffffffffffffffffffffffffffffff168152602001908152602001600020905080600001816001018180548060200260200160405190810160405280929190818152602001828054801561063f57602002820191906000526020600020905b8160009054906101000a900473ffffffffffffffffffffffffffffffffffffffff1673ffffffffffffffffffffffffffffffffffffffff16815260200190600101908083116105f5575b505050505091508080548060200260200160405190810160405280929190818152602001828054801561069157602002820191906000526020600020905b81548152602001906001019080831161067d575b505050505090509250925050915091565b6000808673ffffffffffffffffffffffffffffffffffffffff1673ffffffffffffffffffffffffffffffffffffffff16815260200190815260200160002073__$f483377b159a5ea0e3632e216689e4fd4e$__63fed279799091868686866040518663ffffffff1660e01b8152600401610720959493929190612df4565b60006040518083038186803b15801561073857600080fd5b505af415801561074c573d6000803e3d6000fd5b505050505050505050565b6000808973ffffffffffffffffffffffffffffffffffffffff1673ffffffffffffffffffffffffffffffffffffffff16815260200190815260200160002073__$f483377b159a5ea0e3632e216689e4fd4e$__635f16dce49091898989898989896040518963ffffffff1660e01b81526004016107db989796959493929190612e56565b60006040518083038186803b1580156107f357600080fd5b505af4158015610807573d6000803e3d6000fd5b505050505050505050505050565b606060008060008573ffffffffffffffffffffffffffffffffffffffff1673ffffffffffffffffffffffffffffffffffffffff16815260200190815260200160002090508060040160008473ffffffffffffffffffffffffffffffffffffffff1673ffffffffffffffffffffffffffffffffffffffff16815260200190815260200160002060009054906101000a900460ff166108e7576040517f08c379a00000000000000000000000000000000000000000000000000000000081526004016108de90612d6a565b60405180910390fd5b8060030160008473ffffffffffffffffffffffffffffffffffffffff1673ffffffffffffffffffffffffffffffffffffffff168152602001908152602001600020600201805480602002602001604051908101604052809291908181526020016000905b82821015610a0c57838290600052602060002090600502016040518060a00160405290816000820160009054906101000a900473ffffffffffffffffffffffffffffffffffffffff1673ffffffffffffffffffffffffffffffffffffffff1673ffffffffffffffffffffffffffffffffffffffff16815260200160018201548152602001600282015481526020016003820160009054906101000a900460ff161515151581526020016004820154815250508152602001906001019061094b565b5050505091505092915050565b6000808973ffffffffffffffffffffffffffffffffffffffff1673ffffffffffffffffffffffffffffffffffffffff16815260200190815260200160002073__$f483377b159a5ea0e3632e216689e4fd4e$__63ebed3ff59091898989898989896040518963ffffffff1660e01b8152600401610a9d989796959493929190612e56565b60006040518083038186803b158015610ab557600080fd5b505af4158015610ac9573d6000803e3d6000fd5b505050505050505050505050565b6000808673ffffffffffffffffffffffffffffffffffffffff1673ffffffffffffffffffffffffffffffffffffffff16815260200190815260200160002073__$f483377b159a5ea0e3632e216689e4fd4e$__6369a8c2b29091868686866040518663ffffffff1660e01b8152600401610b55959493929190612df4565b60006040518083038186803b158015610b6d57600080fd5b505af4158015610b81573d6000803e3d6000fd5b505050505050505050565b60608060008060008673ffffffffffffffffffffffffffffffffffffffff1673ffffffffffffffffffffffffffffffffffffffff16815260200190815260200160002090508060040160008573ffffffffffffffffffffffffffffffffffffffff1673ffffffffffffffffffffffffffffffffffffffff16815260200190815260200160002060009054906101000a900460ff16610c5f576040517f08c379a0000000000000000000000000000000000000000000000000000000008152600401610c5690612d6a565b60405180910390fd5b8060030160008573ffffffffffffffffffffffffffffffffffffffff1673ffffffffffffffffffffffffffffffffffffffff1681526020019081526020016000206001018160030160008673ffffffffffffffffffffffffffffffffffffffff1673ffffffffffffffffffffffffffffffffffffffff16815260200190815260200160002060010181805480602002602001604051908101604052809291908181526020016000905b82821015610dc957838290600052602060002090600502016040518060a00160405290816000820160009054906101000a900473ffffffffffffffffffffffffffffffffffffffff1673ffffffffffffffffffffffffffffffffffffffff1673ffffffffffffffffffffffffffffffffffffffff16815260200160018201548152602001600282015481526020016003820160009054906101000a900460ff1615151515815260200160048201548152505081526020019060010190610d08565b50505050915080805480602002602001604051908101604052809291908181526020016000905b82821015610eb157838290600052602060002090600502016040518060a00160405290816000820160009054906101000a900473ffffffffffffffffffffffffffffffffffffffff1673ffffffffffffffffffffffffffffffffffffffff1673ffffffffffffffffffffffffffffffffffffffff16815260200160018201548152602001600282015481526020016003820160009054906101000a900460ff1615151515815260200160048201548152505081526020019060010190610df0565b50505050905092509250509250929050565b606080606060008060008673ffffffffffffffffffffffffffffffffffffffff1673ffffffffffffffffffffffffffffffffffffffff168152602001908152602001600020905060008160020180549050905060008167ffffffffffffffff811115610f3257610f31612ed4565b5b604051908082528060200260200182016040528015610f6b57816020015b610f5861208c565b815260200190600190039081610f505790505b50905060005b8281101561155257836003016000856002018381548110610f9557610f94612f03565b5b9060005260206000200160009054906101000a900473ffffffffffffffffffffffffffffffffffffffff1673ffffffffffffffffffffffffffffffffffffffff1673ffffffffffffffffffffffffffffffffffffffff1681526020019081526020016000206040518060c00160405290816000820160009054906101000a900473ffffffffffffffffffffffffffffffffffffffff1673ffffffffffffffffffffffffffffffffffffffff1673ffffffffffffffffffffffffffffffffffffffff16815260200160018201805480602002602001604051908101604052809291908181526020016000905b8282101561114157838290600052602060002090600502016040518060a00160405290816000820160009054906101000a900473ffffffffffffffffffffffffffffffffffffffff1673ffffffffffffffffffffffffffffffffffffffff1673ffffffffffffffffffffffffffffffffffffffff16815260200160018201548152602001600282015481526020016003820160009054906101000a900460ff1615151515815260200160048201548152505081526020019060010190611080565b50505050815260200160028201805480602002602001604051908101604052809291908181526020016000905b8282101561122f57838290600052602060002090600502016040518060a00160405290816000820160009054906101000a900473ffffffffffffffffffffffffffffffffffffffff1673ffffffffffffffffffffffffffffffffffffffff1673ffffffffffffffffffffffffffffffffffffffff16815260200160018201548152602001600282015481526020016003820160009054906101000a900460ff161515151581526020016004820154815250508152602001906001019061116e565b505050508152602001600382016040518060800160405290816000820154815260200160018201548152602001600282015481526020016003820160009054906101000a900460ff161515151581525050815260200160078201805480602002602001604051908101604052809291908181526020016000905b8282101561139257838290600052602060002090600702016040518060800160405290816000820160009054906101000a900473ffffffffffffffffffffffffffffffffffffffff1673ffffffffffffffffffffffffffffffffffffffff1673ffffffffffffffffffffffffffffffffffffffff168152602001600182016040518060800160405290816000820154815260200160018201548152602001600282015481526020016003820160009054906101000a900460ff161515151581525050815260200160058201548152602001600682015481525050815260200190600101906112a9565b50505050815260200160088201805480602002602001604051908101604052809291908181526020016000905b8282101561151957838290600052602060002090600902016040518060a00160405290816000820160009054906101000a900473ffffffffffffffffffffffffffffffffffffffff1673ffffffffffffffffffffffffffffffffffffffff1673ffffffffffffffffffffffffffffffffffffffff168152602001600182016040518060a00160405290816000820160009054906101000a900473ffffffffffffffffffffffffffffffffffffffff1673ffffffffffffffffffffffffffffffffffffffff1673ffffffffffffffffffffffffffffffffffffffff16815260200160018201548152602001600282015481526020016003820160009054906101000a900460ff161515151581526020016004820154815250508152602001600682015481526020016007820160009054906101000a900460ff16151515158152602001600882015481525050815260200190600101906113bf565b505050508152505082828151811061153457611533612f03565b5b6020026020010181905250808061154a90612f61565b915050610f71565b50826000018360010182828054806020026020016040519081016040528092919081815260200182805480156115dd57602002820191906000526020600020905b8160009054906101000a900473ffffffffffffffffffffffffffffffffffffffff1673ffffffffffffffffffffffffffffffffffffffff1681526020019060010190808311611593575b505050505092508180548060200260200160405190810160405280929190818152602001828054801561162f57602002820191906000526020600020905b81548152602001906001019080831161161b575b505050505091509550955095505050509193909250565b606060008060008573ffffffffffffffffffffffffffffffffffffffff1673ffffffffffffffffffffffffffffffffffffffff16815260200190815260200160002090508060040160008473ffffffffffffffffffffffffffffffffffffffff1673ffffffffffffffffffffffffffffffffffffffff16815260200190815260200160002060009054906101000a900460ff16611718576040517f08c379a000000000000000000000000000000000000000000000000000000000815260040161170f90612d6a565b60405180910390fd5b8060030160008473ffffffffffffffffffffffffffffffffffffffff1673ffffffffffffffffffffffffffffffffffffffff168152602001908152602001600020600101805480602002602001604051908101604052809291908181526020016000905b8282101561183d57838290600052602060002090600502016040518060a00160405290816000820160009054906101000a900473ffffffffffffffffffffffffffffffffffffffff1673ffffffffffffffffffffffffffffffffffffffff1673ffffffffffffffffffffffffffffffffffffffff16815260200160018201548152602001600282015481526020016003820160009054906101000a900460ff161515151581526020016004820154815250508152602001906001019061177c565b5050505091505092915050565b61185261208c565b60008060008573ffffffffffffffffffffffffffffffffffffffff1673ffffffffffffffffffffffffffffffffffffffff16815260200190815260200160002090508060040160008473ffffffffffffffffffffffffffffffffffffffff1673ffffffffffffffffffffffffffffffffffffffff16815260200190815260200160002060009054906101000a900460ff16611922576040517f08c379a000000000000000000000000000000000000000000000000000000000815260040161191990612d6a565b60405180910390fd5b8060030160008473ffffffffffffffffffffffffffffffffffffffff1673ffffffffffffffffffffffffffffffffffffffff1681526020019081526020016000206040518060c00160405290816000820160009054906101000a900473ffffffffffffffffffffffffffffffffffffffff1673ffffffffffffffffffffffffffffffffffffffff1673ffffffffffffffffffffffffffffffffffffffff16815260200160018201805480602002602001604051908101604052809291908181526020016000905b82821015611aaa57838290600052602060002090600502016040518060a00160405290816000820160009054906101000a900473ffffffffffffffffffffffffffffffffffffffff1673ffffffffffffffffffffffffffffffffffffffff1673ffffffffffffffffffffffffffffffffffffffff16815260200160018201548152602001600282015481526020016003820160009054906101000a900460ff16151515158152602001600482015481525050815260200190600101906119e9565b50505050815260200160028201805480602002602001604051908101604052809291908181526020016000905b82821015611b9857838290600052602060002090600502016040518060a00160405290816000820160009054906101000a900473ffffffffffffffffffffffffffffffffffffffff1673ffffffffffffffffffffffffffffffffffffffff1673ffffffffffffffffffffffffffffffffffffffff16815260200160018201548152602001600282015481526020016003820160009054906101000a900460ff1615151515815260200160048201548152505081526020019060010190611ad7565b505050508152602001600382016040518060800160405290816000820154815260200160018201548152602001600282015481526020016003820160009054906101000a900460ff161515151581525050815260200160078201805480602002602001604051908101604052809291908181526020016000905b82821015611cfb57838290600052602060002090600702016040518060800160405290816000820160009054906101000a900473ffffffffffffffffffffffffffffffffffffffff1673ffffffffffffffffffffffffffffffffffffffff1673ffffffffffffffffffffffffffffffffffffffff168152602001600182016040518060800160405290816000820154815260200160018201548152602001600282015481526020016003820160009054906101000a900460ff16151515158152505081526020016005820154815260200160068201548152505081526020019060010190611c12565b50505050815260200160088201805480602002602001604051908101604052809291908181526020016000905b82821015611e8257838290600052602060002090600902016040518060a00160405290816000820160009054906101000a900473ffffffffffffffffffffffffffffffffffffffff1673ffffffffffffffffffffffffffffffffffffffff1673ffffffffffffffffffffffffffffffffffffffff168152602001600182016040518060a00160405290816000820160009054906101000a900473ffffffffffffffffffffffffffffffffffffffff1673ffffffffffffffffffffffffffffffffffffffff1673ffffffffffffffffffffffffffffffffffffffff16815260200160018201548152602001600282015481526020016003820160009054906101000a900460ff161515151581526020016004820154815250508152602001600682015481526020016007820160009054906101000a900460ff1615151515815260200160088201548152505081526020019060010190611d28565b505050508152505091505092915050565b60008060008373ffffffffffffffffffffffffffffffffffffffff1673ffffffffffffffffffffffffffffffffffffffff168152602001908152602001600020600201805490509050919050565b60606000808373ffffffffffffffffffffffffffffffffffffffff1673ffffffffffffffffffffffffffffffffffffffff168152602001908152602001600020600201805480602002602001604051908101604052809291908181526020018280548015611fa457602002820191906000526020600020905b8160009054906101000a900473ffffffffffffffffffffffffffffffffffffffff1673ffffffffffffffffffffffffffffffffffffffff1681526020019060010190808311611f5a575b50505050509050919050565b6000808573ffffffffffffffffffffffffffffffffffffffff1673ffffffffffffffffffffffffffffffffffffffff16815260200190815260200160002073__$f483377b159a5ea0e3632e216689e4fd4e$__637eb8580490918585856040518563ffffffff1660e01b815260040161202c9493929190612daf565b60006040518083038186803b15801561204457600080fd5b505af4158015612058573d6000803e3d6000fd5b5050505050505050565b60405180608001604052806000815260200160008152602001600081526020016000151581525090565b6040518060c00160405280600073ffffffffffffffffffffffffffffffffffffffff16815260200160608152602001606081526020016120ca612062565b815260200160608152602001606081525090565b600080fd5b600073ffffffffffffffffffffffffffffffffffffffff82169050919050565b600061210e826120e3565b9050919050565b61211e81612103565b811461212957600080fd5b50565b60008135905061213b81612115565b92915050565b60008060408385031215612158576121576120de565b5b60006121668582860161212c565b92505060206121778582860161212c565b9150509250929050565b6000819050919050565b61219481612181565b82525050565b60008115159050919050565b6121af8161219a565b82525050565b6080820160008201516121cb600085018261218b565b5060208201516121de602085018261218b565b5060408201516121f1604085018261218b565b50606082015161220460608501826121a6565b50505050565b600060808201905061221f60008301846121b5565b92915050565b61222e81612181565b811461223957600080fd5b50565b60008135905061224b81612225565b92915050565b6000806000806080858703121561226b5761226a6120de565b5b60006122798782880161212c565b945050602061228a8782880161212c565b935050604061229b8782880161223c565b92505060606122ac8782880161223c565b91505092959194509250565b6000602082840312156122ce576122cd6120de565b5b60006122dc8482850161212c565b91505092915050565b600081519050919050565b600082825260208201905092915050565b6000819050602082019050919050565b61231a81612103565b82525050565b600061232c8383612311565b60208301905092915050565b6000602082019050919050565b6000612350826122e5565b61235a81856122f0565b935061236583612301565b8060005b8381101561239657815161237d8882612320565b975061238883612338565b925050600181019050612369565b5085935050505092915050565b600081519050919050565b600082825260208201905092915050565b6000819050602082019050919050565b6000819050919050565b6123e2816123cf565b82525050565b60006123f483836123d9565b60208301905092915050565b6000602082019050919050565b6000612418826123a3565b61242281856123ae565b935061242d836123bf565b8060005b8381101561245e57815161244588826123e8565b975061245083612400565b925050600181019050612431565b5085935050505092915050565b600060408201905081810360008301526124858185612345565b90508181036020830152612499818461240d565b90509392505050565b600080600080600060a086880312156124be576124bd6120de565b5b60006124cc8882890161212c565b95505060206124dd8882890161212c565b94505060406124ee8882890161223c565b93505060606124ff8882890161223c565b92505060806125108882890161223c565b9150509295509295909350565b6125268161219a565b811461253157600080fd5b50565b6000813590506125438161251d565b92915050565b600080600080600080600080610100898b03121561256a576125696120de565b5b60006125788b828c0161212c565b98505060206125898b828c0161212c565b975050604061259a8b828c0161223c565b96505060606125ab8b828c0161223c565b95505060806125bc8b828c01612534565b94505060a06125cd8b828c0161223c565b93505060c06125de8b828c0161223c565b92505060e06125ef8b828c0161223c565b9150509295985092959890939650565b600081519050919050565b600082825260208201905092915050565b6000819050602082019050919050565b60a0820160008201516126416000850182612311565b506020820151612654602085018261218b565b506040820151612667604085018261218b565b50606082015161267a60608501826121a6565b50608082015161268d608085018261218b565b50505050565b600061269f838361262b565b60a08301905092915050565b6000602082019050919050565b60006126c3826125ff565b6126cd818561260a565b93506126d88361261b565b8060005b838110156127095781516126f08882612693565b97506126fb836126ab565b9250506001810190506126dc565b5085935050505092915050565b6000602082019050818103600083015261273081846126b8565b905092915050565b6000604082019050818103600083015261275281856126b8565b9050818103602083015261276681846126b8565b90509392505050565b600081519050919050565b600082825260208201905092915050565b6000819050602082019050919050565b600082825260208201905092915050565b60006127b7826125ff565b6127c1818561279b565b93506127cc8361261b565b8060005b838110156127fd5781516127e48882612693565b97506127ef836126ab565b9250506001810190506127d0565b5085935050505092915050565b608082016000820151612820600085018261218b565b506020820151612833602085018261218b565b506040820151612846604085018261218b565b50606082015161285960608501826121a6565b50505050565b600081519050919050565b600082825260208201905092915050565b6000819050602082019050919050565b60e0820160008201516128a16000850182612311565b5060208201516128b4602085018261280a565b5060408201516128c760a085018261218b565b5060608201516128da60c085018261218b565b50505050565b60006128ec838361288b565b60e08301905092915050565b6000602082019050919050565b60006129108261285f565b61291a818561286a565b93506129258361287b565b8060005b8381101561295657815161293d88826128e0565b9750612948836128f8565b925050600181019050612929565b5085935050505092915050565b600081519050919050565b600082825260208201905092915050565b6000819050602082019050919050565b610120820160008201516129a66000850182612311565b5060208201516129b9602085018261262b565b5060408201516129cc60c085018261218b565b5060608201516129df60e08501826121a6565b5060808201516129f361010085018261218b565b50505050565b6000612a05838361298f565b6101208301905092915050565b6000602082019050919050565b6000612a2a82612963565b612a34818561296e565b9350612a3f8361297f565b8060005b83811015612a70578151612a5788826129f9565b9750612a6283612a12565b925050600181019050612a43565b5085935050505092915050565b600061012083016000830151612a966000860182612311565b5060208301518482036020860152612aae82826127ac565b91505060408301518482036040860152612ac882826127ac565b9150506060830151612add606086018261280a565b50608083015184820360e0860152612af58282612905565b91505060a0830151848203610100860152612b108282612a1f565b9150508091505092915050565b6000612b298383612a7d565b905092915050565b6000602082019050919050565b6000612b498261276f565b612b53818561277a565b935083602082028501612b658561278b565b8060005b85811015612ba15784840389528151612b828582612b1d565b9450612b8d83612b31565b925060208a01995050600181019050612b69565b50829750879550505050505092915050565b60006060820190508181036000830152612bcd8186612345565b90508181036020830152612be1818561240d565b90508181036040830152612bf58184612b3e565b9050949350505050565b600061012083016000830151612c186000860182612311565b5060208301518482036020860152612c3082826127ac565b91505060408301518482036040860152612c4a82826127ac565b9150506060830151612c5f606086018261280a565b50608083015184820360e0860152612c778282612905565b91505060a0830151848203610100860152612c928282612a1f565b9150508091505092915050565b60006020820190508181036000830152612cb98184612bff565b905092915050565b612cca81612181565b82525050565b6000602082019050612ce56000830184612cc1565b92915050565b60006020820190508181036000830152612d058184612345565b905092915050565b600082825260208201905092915050565b7f6e6f6e206578697374656e74207661756c740000000000000000000000000000600082015250565b6000612d54601283612d0d565b9150612d5f82612d1e565b602082019050919050565b60006020820190508181036000830152612d8381612d47565b9050919050565b8082525050565b612d9a81612103565b82525050565b612da981612181565b82525050565b6000608082019050612dc46000830187612d8a565b612dd16020830186612d91565b612dde6040830185612da0565b612deb6060830184612da0565b95945050505050565b600060a082019050612e096000830188612d8a565b612e166020830187612d91565b612e236040830186612da0565b612e306060830185612da0565b612e3d6080830184612da0565b9695505050505050565b612e508161219a565b82525050565b600061010082019050612e6c600083018b612d8a565b612e79602083018a612d91565b612e866040830189612da0565b612e936060830188612da0565b612ea06080830187612e47565b612ead60a0830186612da0565b612eba60c0830185612da0565b612ec760e0830184612da0565b9998505050505050505050565b7f4e487b7100000000000000000000000000000000000000000000000000000000600052604160045260246000fd5b7f4e487b7100000000000000000000000000000000000000000000000000000000600052603260045260246000fd5b7f4e487b7100000000000000000000000000000000000000000000000000000000600052601160045260246000fd5b6000612f6c82612181565b91507fffffffffffffffffffffffffffffffffffffffffffffffffffffffffffffffff821415612f9f57612f9e612f32565b5b60018201905091905056fea2646970667358221220fe2cbb2b4b7f08a7437718a5ca44cc72fe04a5127c3d4b7e9593bdd5a5be00a164736f6c63430008090033",
    "linkReferences": {
        "contracts/libs/MarginVault.sol": {
            "MarginVault": [
                {
                    "length": 20,
                    "start": 1311
                },
                {
                    "length": 20,
                    "start": 1794
                },
                {
                    "length": 20,
                    "start": 1975
                },
                {
                    "length": 20,
                    "start": 2681
                },
                {
                    "length": 20,
                    "start": 2871
                },
                {
                    "length": 20,
                    "start": 8208
                }
            ]
        }
    },
    "deployedLinkReferences": {
        "contracts/libs/MarginVault.sol": {
            "MarginVault": [
                {
                    "length": 20,
                    "start": 1279
                },
                {
                    "length": 20,
                    "start": 1762
                },
                {
                    "length": 20,
                    "start": 1943
                },
                {
                    "length": 20,
                    "start": 2649
                },
                {
                    "length": 20,
                    "start": 2839
                },
                {
                    "length": 20,
                    "start": 8176
                }
            ]
        }
    }
}